{
  "contractName": "TwitterAuth",
  "abi": [
    {
      "inputs": [
        {
          "internalType": "contract WitnetRequestBoard",
          "name": "_wrb",
          "type": "address"
        }
      ],
      "stateMutability": "nonpayable",
      "type": "constructor"
    },
    {
      "anonymous": false,
      "inputs": [
        {
          "indexed": false,
          "internalType": "string",
          "name": "msg",
          "type": "string"
        }
      ],
      "name": "ResultError",
      "type": "event"
    },
    {
      "inputs": [
        {
          "internalType": "string",
          "name": "",
          "type": "string"
        }
      ],
      "name": "addressFromId",
      "outputs": [
        {
          "internalType": "address",
          "name": "",
          "type": "address"
        }
      ],
      "stateMutability": "view",
      "type": "function",
      "constant": true
    },
    {
      "inputs": [
        {
          "internalType": "uint256",
          "name": "",
          "type": "uint256"
        }
      ],
      "name": "idFromIndex",
      "outputs": [
        {
          "internalType": "string",
          "name": "",
          "type": "string"
        }
      ],
      "stateMutability": "view",
      "type": "function",
      "constant": true
    },
    {
      "inputs": [],
      "name": "numOfUsers",
      "outputs": [
        {
          "internalType": "uint256",
          "name": "",
          "type": "uint256"
        }
      ],
      "stateMutability": "view",
      "type": "function",
      "constant": true
    },
    {
      "inputs": [
        {
          "internalType": "address",
          "name": "",
          "type": "address"
        }
      ],
      "name": "users",
      "outputs": [
        {
          "internalType": "string",
          "name": "twitterId",
          "type": "string"
        },
        {
          "internalType": "uint256",
          "name": "witnetQueryId",
          "type": "uint256"
        },
        {
          "internalType": "uint256",
          "name": "index",
          "type": "uint256"
        }
      ],
      "stateMutability": "view",
      "type": "function",
      "constant": true
    },
    {
      "inputs": [],
      "name": "witnet",
      "outputs": [
        {
          "internalType": "contract WitnetRequestBoard",
          "name": "",
          "type": "address"
        }
      ],
      "stateMutability": "view",
      "type": "function",
      "constant": true
    },
    {
      "inputs": [
        {
          "internalType": "string",
          "name": "_TweetId",
          "type": "string"
        }
      ],
      "name": "checkTwitterID",
      "outputs": [],
      "stateMutability": "payable",
      "type": "function",
      "payable": true
    },
    {
      "inputs": [],
      "name": "deleteTwitterID",
      "outputs": [],
      "stateMutability": "nonpayable",
      "type": "function"
    },
    {
      "inputs": [
        {
          "internalType": "address",
          "name": "_user",
          "type": "address"
        }
      ],
      "name": "twitterIdFromAddress",
      "outputs": [
        {
          "internalType": "string",
          "name": "",
          "type": "string"
        }
      ],
      "stateMutability": "view",
      "type": "function",
      "constant": true
    },
    {
      "inputs": [],
      "name": "extractTwitterId",
      "outputs": [],
      "stateMutability": "nonpayable",
      "type": "function"
    }
  ],
  "bytecode": "0x60a060405234801561001057600080fd5b50604051620023af380380620023af833981016040819052610031916100a2565b806001600160a01b03811661008c5760405162461bcd60e51b815260206004820152601960248201527f5573696e675769746e65743a207a65726f206164647265737300000000000000604482015260640160405180910390fd5b60601b6001600160601b031916608052506100d2565b6000602082840312156100b457600080fd5b81516001600160a01b03811681146100cb57600080fd5b9392505050565b60805160601c6122946200011b6000396000818161013f015281816107680152818161081301528181610b3801528181610c6c01528181610d100152610e1e01526122946000f3fe608060405260043610620000915760003560e01c806346d1d21a116200006057806346d1d21a146200012b578063997cba31146200017a578063a87430ba146200019f578063d6738e0114620001d5578063fb7016a614620001ed57600080fd5b806301c2aed6146200009657806310ff72e114620000b057806311134f5014620000c757806343f7bde51462000104575b600080fd5b348015620000a357600080fd5b50620000ae62000232565b005b620000ae620000c1366004620013d2565b6200032d565b348015620000d457600080fd5b50620000ec620000e636600462001649565b6200046d565b604051620000fb919062001844565b60405180910390f35b3480156200011157600080fd5b506200011c60035481565b604051908152602001620000fb565b3480156200013857600080fd5b50620001617f000000000000000000000000000000000000000000000000000000000000000081565b6040516001600160a01b039091168152602001620000fb565b3480156200018757600080fd5b50620000ec6200019936600462001235565b6200050f565b348015620001ac57600080fd5b50620001c4620001be36600462001235565b620005c3565b604051620000fb9392919062001859565b348015620001e257600080fd5b50620000ae62000675565b348015620001fa57600080fd5b50620001616200020c36600462001449565b80516020818301810180516001825292820191909301209152546001600160a01b031681565b336000908152602081905260409020600101546200026d5760405162461bcd60e51b8152600401620002649062001880565b60405180910390fd5b3360009081526020819052604080822090516001916200028d91620016c9565b908152604080516020928190038301812080546001600160a01b0319166001600160a01b03959095169490941790935581830180825260008085523381529283905291209151620002e0929190620010df565b50604080516020808201808452600080845233815280835284812060029081015482529092529290209051620003179290620010df565b5033600090815260208190526040812060010155565b3360009081526020819052604090206001015415620003a45760405162461bcd60e51b815260206004820152602c60248201527f54776974746572417574683a205477697474657220494420697320616c72656160448201526b191e481c995c5d595cdd195960a21b606482015260840162000264565b60008282604051602001620003bb92919062001799565b604051602081830303815290604052604051620003d8906200116e565b620003e4919062001844565b604051809103906000f08015801562000401573d6000803e3d6000fd5b50336000908152602081905260409020600201549091506200044a5760038054336000908152602081905260408120600201829055909190620004448362001cb6565b91905055505b620004558162000c4a565b33600090815260208190526040902060010155505050565b60026020526000908152604090208054620004889062001c79565b80601f0160208091040260200160405190810160405280929190818152602001828054620004b69062001c79565b8015620005075780601f10620004db5761010080835404028352916020019162000507565b820191906000526020600020905b815481529060010190602001808311620004e957829003601f168201915b505050505081565b6001600160a01b0381166000908152602081905260409020805460609190620005389062001c79565b80601f0160208091040260200160405190810160405280929190818152602001828054620005669062001c79565b8015620005b75780601f106200058b57610100808354040283529160200191620005b7565b820191906000526020600020905b8154815290600101906020018083116200059957829003601f168201915b50505050509050919050565b600060208190529081526040902080548190620005e09062001c79565b80601f01602080910402602001604051908101604052809291908181526020018280546200060e9062001c79565b80156200065f5780601f1062000633576101008083540402835291602001916200065f565b820191906000526020600020905b8154815290600101906020018083116200064157829003601f168201915b5050505050908060010154908060020154905083565b33600090815260208190526040902060010154620006939062000cf6565b620006fe5760405162461bcd60e51b815260206004820152603460248201527f54776974746572417574683a20547769747465722049442069732063757272656044820152731b9d1b1e4818995a5b99c81c995c5d595cdd195960621b606482015260840162000264565b33600090815260208190526040902060010154620007305760405162461bcd60e51b8152600401620002649062001880565b336000908152602081905260408120600101546200074e9062000db1565b604051635430260d60e11b81529091506001600160a01b037f0000000000000000000000000000000000000000000000000000000000000000169063a8604c1a906200079f908490600401620018cd565b60206040518083038186803b158015620007b857600080fd5b505afa158015620007cd573d6000803e3d6000fd5b505050506040513d601f19601f82011682018060405250810190620007f3919062001336565b1562000b1e5760405163643ecb4f60e11b81526000906001600160a01b037f0000000000000000000000000000000000000000000000000000000000000000169063c87d969e906200084a908590600401620018cd565b60006040518083038186803b1580156200086357600080fd5b505afa15801562000878573d6000803e3d6000fd5b505050506040513d6000823e601f3d908101601f19168201604052620008a2919081019062001260565b9050620008cd81600181518110620008be57620008be62001d16565b60200260200101513362000ea8565b1562000aa85760006001600160a01b0316600182600081518110620008f657620008f662001d16565b60200260200101516040516200090d9190620016ab565b908152604051908190036020019020546001600160a01b0316141562000a26578060008151811062000943576200094362001d16565b6020908102919091018101513360009081528083526040902081516200096f93919290910190620010df565b503360018260008151811062000989576200098962001d16565b6020026020010151604051620009a09190620016ab565b908152602001604051809103902060006101000a8154816001600160a01b0302191690836001600160a01b0316021790555080600081518110620009e857620009e862001d16565b6020908102919091018101513360009081528083526040808220600290810154835284529020815162000a2193919290910190620010df565b505050565b3360009081526020819052604080822060010191909155517fbfea49e8f99b20639d8417dbf46bab7c20b217fbe894ea27a249c990c1a359d69062000a9c906020808252601c908201527f5477697474657220494420697320616c7265616479206c696e6b656400000000604082015260600190565b60405180910390a15050565b3360009081526020819052604080822060010191909155517fbfea49e8f99b20639d8417dbf46bab7c20b217fbe894ea27a249c990c1a359d69062000a9c9060208082526017908201527f41646472657373206973206e6f74206d61746368696e67000000000000000000604082015260600190565b604051636ba401df60e11b81526060906001600160a01b037f0000000000000000000000000000000000000000000000000000000000000000169063d74803be9062000b6f908590600401620018cd565b60006040518083038186803b15801562000b8857600080fd5b505afa92505050801562000bc057506040513d6000823e601f3d908101601f1916820160405262000bbd919081019062001354565b60015b62000bff573d80801562000bf1576040519150601f19603f3d011682016040523d82523d6000602084013e62000bf6565b606091505b50905062000c03565b9150505b3360009081526020819052604080822060010191909155517fbfea49e8f99b20639d8417dbf46bab7c20b217fbe894ea27a249c990c1a359d69062000a9c90839062001844565b60405163b281a7bd60e01b81526001600160a01b0382811660048301526000917f00000000000000000000000000000000000000000000000000000000000000009091169063b281a7bd9034906024016020604051808303818588803b15801562000cb457600080fd5b505af115801562000cc9573d6000803e3d6000fd5b50505050506040513d601f19601f8201168201806040525081019062000cf0919062001663565b92915050565b60006002604051631bc1eaf360e21b8152600481018490527f00000000000000000000000000000000000000000000000000000000000000006001600160a01b031690636f07abcc9060240160206040518083038186803b15801562000d5b57600080fd5b505afa15801562000d70573d6000803e3d6000fd5b505050506040513d601f19601f8201168201806040525081019062000d969190620013af565b600381111562000daa5762000daa62001d00565b1492915050565b62000e086040805180820182526000808252825161010081018452606060c0820181815260e083018490528252602082810184905294820183905281018290526080810182905260a0810191909152909182015290565b6040516335369a6b60e21b8152600481018390527f00000000000000000000000000000000000000000000000000000000000000006001600160a01b03169063d4da69ac9060240160006040518083038186803b15801562000e6957600080fd5b505afa15801562000e7e573d6000803e3d6000fd5b505050506040513d6000823e601f3d908101601f1916820160405262000cf09190810190620014cb565b60008062000eb68362000f12565b60405160200162000ec89190620016ab565b604051602081830303815290604052805190602001208460405160200162000ef19190620016ab565b60408051808303601f19018152919052805160209091012014949350505050565b60408051602880825260608281019093526000919060208201818036833701905050905060005b60148110156200107457600062000f5282601362001c06565b62000f5f90600862001bc0565b62000f6c90600262001b04565b62000f81906001600160a01b03871662001a7f565b60f81b9050600060108260f81c62000f9a919062001a96565b60f81b905060008160f81c601062000fb3919062001be2565b8360f81c62000fc3919062001c20565b60f81b905062000fd3826200109f565b8562000fe186600262001bc0565b8151811062000ff45762000ff462001d16565b60200101906001600160f81b031916908160001a90535062001016816200109f565b856200102486600262001bc0565b6200103190600162001a3c565b8151811062001044576200104462001d16565b60200101906001600160f81b031916908160001a90535050505080806200106b9062001cb6565b91505062000f39565b50806040516020016200108891906200176d565b604051602081830303815290604052915050919050565b6000600a60f883901c1015620010c957620010c060f883901c603062001a57565b60f81b92915050565b620010c060f883901c605762001a57565b919050565b828054620010ed9062001c79565b90600052602060002090601f0160209004810192826200111157600085556200115c565b82601f106200112c57805160ff19168380011785556200115c565b828001600101855582156200115c579182015b828111156200115c5782518255916020019190600101906200113f565b506200116a9291506200117c565b5090565b61051c8062001d4383390190565b5b808211156200116a57600081556001016200117d565b6000620011aa620011a48462001a11565b620019dd565b9050828152838383011115620011bf57600080fd5b620011cf83602083018462001c46565b9392505050565b80518015158114620010da57600080fd5b600082601f830112620011f957600080fd5b620011cf8383516020850162001193565b805167ffffffffffffffff81168114620010da57600080fd5b805160ff81168114620010da57600080fd5b6000602082840312156200124857600080fd5b81356001600160a01b0381168114620011cf57600080fd5b600060208083850312156200127457600080fd5b825167ffffffffffffffff808211156200128d57600080fd5b818501915085601f830112620012a257600080fd5b815181811115620012b757620012b762001d2c565b8060051b620012c8858201620019dd565b8281528581019085870183870188018b1015620012e457600080fd5b60009350835b85811015620013265781518781111562001302578586fd5b620013128d8b838c0101620011e7565b8552509288019290880190600101620012ea565b50909a9950505050505050505050565b6000602082840312156200134957600080fd5b620011cf82620011d6565b600080604083850312156200136857600080fd5b825161010081106200137957600080fd5b602084015190925067ffffffffffffffff8111156200139757600080fd5b620013a585828601620011e7565b9150509250929050565b600060208284031215620013c257600080fd5b815160048110620011cf57600080fd5b60008060208385031215620013e657600080fd5b823567ffffffffffffffff80821115620013ff57600080fd5b818501915085601f8301126200141457600080fd5b8135818111156200142457600080fd5b8660208285010111156200143757600080fd5b60209290920196919550909350505050565b6000602082840312156200145c57600080fd5b813567ffffffffffffffff8111156200147457600080fd5b8201601f810184136200148657600080fd5b803562001497620011a48262001a11565b818152856020838501011115620014ad57600080fd5b81602084016020830137600091810160200191909152949350505050565b60006020808385031215620014df57600080fd5b825167ffffffffffffffff80821115620014f857600080fd5b90840190604082870312156200150d57600080fd5b620015176200198b565b6200152283620011d6565b815283830151828111156200153657600080fd5b929092019160c083880312156200154c57600080fd5b62001556620019b7565b8351838111156200156657600080fd5b84016040818a0312156200157957600080fd5b620015836200198b565b8151858111156200159357600080fd5b82019450601f85018a13620015a757600080fd5b620015b78a865189880162001193565b815286820151945063ffffffff85168514620015d257600080fd5b808701859052825250620015e884860162001223565b85820152620015fa6040850162001223565b60408201526200160d6060850162001223565b606082015262001620608085016200120a565b60808201526200163360a085016200120a565b60a0820152938101939093525090949350505050565b6000602082840312156200165c57600080fd5b5035919050565b6000602082840312156200167657600080fd5b5051919050565b600081518084526200169781602086016020860162001c46565b601f01601f19169290920160200192915050565b60008251620016bf81846020870162001c46565b9190910192915050565b600080835481600182811c915080831680620016e657607f831692505b60208084108214156200170757634e487b7160e01b86526022600452602486fd5b8180156200171e576001811462001730576200175f565b60ff198616895284890196506200175f565b60008a81526020902060005b86811015620017575781548b8201529085019083016200173c565b505084890196505b509498975050505050505050565b61060f60f31b8152600082516200178c81600285016020870162001c46565b9190910160020192915050565b7f0a7608edf2f889061258124968747470733a2f2f6170692d6d6964646c65776181527f7265732e76657263656c2e6170702f6170692f747769747465722f7477656574602082015261732f60f01b6040820152818360428301377f1a0b82187782186164617574681a090a050808120180100222090a0508081201910160428101919091527380100210c0843d180a20e80728333080c8afa02560601b6062820152607601919050565b602081526000620011cf60208301846200167d565b6060815260006200186e60608301866200167d565b60208301949094525060400152919050565b6020808252602d908201527f54776974746572417574683a2054776974746572204944206e6565647320746f60408201526c081899481c995c5d595cdd1959609a1b606082015260800190565b6020815281511515602082015260006020830151604080840152805160c06060850152805160406101208601526200190a6101608601826200167d565b60209283015163ffffffff166101408701529183015160ff81166080870152919050604083015160ff811660a08701529150606083015160ff811660c08701529150608083015167ffffffffffffffff811660e0870152915060a083015192506200198261010086018467ffffffffffffffff169052565b95945050505050565b6040805190810167ffffffffffffffff81118282101715620019b157620019b162001d2c565b60405290565b60405160c0810167ffffffffffffffff81118282101715620019b157620019b162001d2c565b604051601f8201601f1916810167ffffffffffffffff8111828210171562001a095762001a0962001d2c565b604052919050565b600067ffffffffffffffff82111562001a2e5762001a2e62001d2c565b50601f01601f191660200190565b6000821982111562001a525762001a5262001cd4565b500190565b600060ff821660ff84168060ff0382111562001a775762001a7762001cd4565b019392505050565b60008262001a915762001a9162001cea565b500490565b600060ff83168062001aac5762001aac62001cea565b8060ff84160491505092915050565b600181815b8085111562001afc57816000190482111562001ae05762001ae062001cd4565b8085161562001aee57918102915b93841c939080029062001ac0565b509250929050565b6000620011cf838360008262001b1d5750600162000cf0565b8162001b2c5750600062000cf0565b816001811462001b45576002811462001b505762001b70565b600191505062000cf0565b60ff84111562001b645762001b6462001cd4565b50506001821b62000cf0565b5060208310610133831016604e8410600b841016171562001b95575081810a62000cf0565b62001ba1838362001abb565b806000190482111562001bb85762001bb862001cd4565b029392505050565b600081600019048311821515161562001bdd5762001bdd62001cd4565b500290565b600060ff821660ff84168160ff048111821515161562001bb85762001bb862001cd4565b60008282101562001c1b5762001c1b62001cd4565b500390565b600060ff821660ff84168082101562001c3d5762001c3d62001cd4565b90039392505050565b60005b8381101562001c6357818101518382015260200162001c49565b8381111562001c73576000848401525b50505050565b600181811c9082168062001c8e57607f821691505b6020821081141562001cb057634e487b7160e01b600052602260045260246000fd5b50919050565b600060001982141562001ccd5762001ccd62001cd4565b5060010190565b634e487b7160e01b600052601160045260246000fd5b634e487b7160e01b600052601260045260246000fd5b634e487b7160e01b600052602160045260246000fd5b634e487b7160e01b600052603260045260246000fd5b634e487b7160e01b600052604160045260246000fdfe608060405234801561001057600080fd5b5060405161051c38038061051c83398101604081905261002f91610169565b80516100429060009060208401906100b7565b506100568161005f60201b6100fa1760201c565b600155506102b2565b60006002826040516100719190610215565b602060405180830381855afa15801561008e573d6000803e3d6000fd5b5050506040513d601f19601f820116820180604052508101906100b19190610150565b92915050565b8280546100c390610261565b90600052602060002090601f0160209004810192826100e5576000855561012b565b82601f106100fe57805160ff191683800117855561012b565b8280016001018555821561012b579182015b8281111561012b578251825591602001919060010190610110565b5061013792915061013b565b5090565b5b80821115610137576000815560010161013c565b60006020828403121561016257600080fd5b5051919050565b60006020828403121561017b57600080fd5b81516001600160401b038082111561019257600080fd5b818401915084601f8301126101a657600080fd5b8151818111156101b8576101b861029c565b604051601f8201601f19908116603f011681019083821181831017156101e0576101e061029c565b816040528281528760208487010111156101f957600080fd5b61020a836020830160208801610231565b979650505050505050565b60008251610227818460208701610231565b9190910192915050565b60005b8381101561024c578181015183820152602001610234565b8381111561025b576000848401525b50505050565b600181811c9082168061027557607f821691505b6020821081141561029657634e487b7160e01b600052602260045260246000fd5b50919050565b634e487b7160e01b600052604160045260246000fd5b61025b806102c16000396000f3fe608060405234801561001057600080fd5b50600436106100365760003560e01c806309bd5a601461003b578063f094000214610057575b600080fd5b61004460015481565b6040519081526020015b60405180910390f35b61005f61006c565b60405161004e9190610187565b60008054610079906101ea565b80601f01602080910402602001604051908101604052809291908181526020018280546100a5906101ea565b80156100f25780601f106100c7576101008083540402835291602001916100f2565b820191906000526020600020905b8154815290600101906020018083116100d557829003601f168201915b505050505081565b600060028260405161010c919061016b565b602060405180830381855afa158015610129573d6000803e3d6000fd5b5050506040513d601f19601f8201168201806040525081019061014c9190610152565b92915050565b60006020828403121561016457600080fd5b5051919050565b6000825161017d8184602087016101ba565b9190910192915050565b60208152600082518060208401526101a68160408501602087016101ba565b601f01601f19169190910160400192915050565b60005b838110156101d55781810151838201526020016101bd565b838111156101e4576000848401525b50505050565b600181811c908216806101fe57607f821691505b6020821081141561021f57634e487b7160e01b600052602260045260246000fd5b5091905056fea2646970667358221220ef494af7a904df372b1fc8471cbeb2be65a1db9560e8c7e0eb9bff297674d4ff64736f6c63430008070033a2646970667358221220d2e67018d9d3e933deaa367b725d8415a98aefb18455d4209bafcabfbfa85d4f64736f6c63430008070033",
  "immutableReferences": {
    "1448": [
      {
        "length": 32,
        "start": 319
      },
      {
        "length": 32,
        "start": 1896
      },
      {
        "length": 32,
        "start": 2067
      },
      {
        "length": 32,
        "start": 2872
      },
      {
        "length": 32,
        "start": 3180
      },
      {
        "length": 32,
        "start": 3344
      },
      {
        "length": 32,
        "start": 3614
      }
    ]
  },
  "source": "// SPDX-License-Identifier: MIT\r\n\r\npragma solidity 0.8.7;\r\n\r\nimport \"witnet-ethereum-bridge/contracts/UsingWitnet.sol\";\r\nimport \"witnet-ethereum-bridge/contracts/requests/WitnetRequest.sol\";\r\n\r\n/// @title Linking a Twitter user to Ethereum address using the Twitter oracle\r\n/// @author Rick\r\ncontract TwitterAuth is UsingWitnet {\r\n  struct User {\r\n    string twitterId;\r\n    uint256 witnetQueryId;\r\n    uint256 index;\r\n  }\r\n\r\n  mapping(address => User) public users;\r\n  mapping(string => address) public addressFromId;\r\n  mapping(uint256 => string) public idFromIndex;\r\n\r\n  uint256 public numOfUsers;\r\n\r\n  event ResultError(string msg);\r\n\r\n  constructor(WitnetRequestBoard _wrb) UsingWitnet(_wrb) {}\r\n\r\n  /// Check whether the twitter id is not being checked yet.\r\n  modifier notChecked() {\r\n    require(\r\n      users[msg.sender].witnetQueryId == 0,\r\n      \"TwitterAuth: Twitter ID is already requested\"\r\n    );\r\n    _;\r\n  }\r\n\r\n  /// Check whether the twitter id has already been requested.\r\n  modifier checked() {\r\n    require(\r\n      users[msg.sender].witnetQueryId > 0,\r\n      \"TwitterAuth: Twitter ID needs to be requested\"\r\n    );\r\n    _;\r\n  }\r\n\r\n  /// Check whether there is a pending update.\r\n  modifier notPending() {\r\n    require(\r\n      _witnetCheckResultAvailability(users[msg.sender].witnetQueryId),\r\n      \"TwitterAuth: Twitter ID is currently being requested\"\r\n    );\r\n    _;\r\n  }\r\n\r\n  ///@notice Sends a data request to Witnet so as to get the Twitter user id linked to the sender address\r\n  ///@param _TweetId The tweet id wich contains the address in the text.\r\n  function checkTwitterID(string calldata _TweetId)\r\n    external\r\n    payable\r\n    notChecked\r\n  {\r\n    WitnetRequest request = new WitnetRequest(\r\n      bytes(\r\n        abi.encodePacked(\r\n          hex\"0a7608edf2f889061258124968747470733a2f2f6170692d6d6964646c6577617265732e76657263656c2e6170702f6170692f747769747465722f7477656574732f\",\r\n          _TweetId,\r\n          hex\"1a0b82187782186164617574681a090a050808120180100222090a050808120180100210c0843d180a20e80728333080c8afa025\"\r\n        )\r\n      )\r\n    );\r\n\r\n    //increase the number of users\r\n    if (users[msg.sender].index == 0) {\r\n      users[msg.sender].index = numOfUsers;\r\n      numOfUsers++;\r\n    }\r\n\r\n    // Keerp track of the Witnet query ID\r\n    users[msg.sender].witnetQueryId = _witnetPostRequest(request);\r\n  }\r\n\r\n  ///@notice Deletes the queryId and the twitter id so it can be queried again.\r\n  function deleteTwitterID() external checked {\r\n    addressFromId[users[msg.sender].twitterId] = address(0);\r\n    users[msg.sender].twitterId = \"\";\r\n    idFromIndex[users[msg.sender].index] = \"\";\r\n    users[msg.sender].witnetQueryId = 0;\r\n  }\r\n\r\n  ///@notice Reads the twitter id from the users mapping\r\n  ///@param _user The address of the user\r\n  ///@return The twitter id of the user\r\n  function twitterIdFromAddress(address _user)\r\n    external\r\n    view\r\n    returns (string memory)\r\n  {\r\n    return users[_user].twitterId;\r\n  }\r\n\r\n  ///@notice Extracts and saves the twitter id from the query\r\n  function extractTwitterId() public notPending checked {\r\n    //Extracting data\r\n    Witnet.Result memory result = _witnetReadResult(\r\n      users[msg.sender].witnetQueryId\r\n    );\r\n\r\n    if (witnet.isOk(result)) {\r\n      // We got a valid id!\r\n      string[] memory values = witnet.asStringArray(result);\r\n      if (compareAddress(values[1], msg.sender)) {\r\n        if (addressFromId[values[0]] == address(0)) {\r\n          users[msg.sender].twitterId = values[0];\r\n          addressFromId[values[0]] = msg.sender;\r\n          idFromIndex[users[msg.sender].index] = values[0];\r\n        } else {\r\n          users[msg.sender].witnetQueryId = 0;\r\n          emit ResultError(\"Twitter ID is already linked\");\r\n        }\r\n      } else {\r\n        users[msg.sender].witnetQueryId = 0;\r\n        emit ResultError(\"Address is not matching\");\r\n      }\r\n    } else {\r\n      string memory errorMessage;\r\n      // Try to read the value as an error message, catch error bytes if read fails\r\n      try witnet.asErrorMessage(result) returns (\r\n        Witnet.ErrorCodes,\r\n        string memory e\r\n      ) {\r\n        errorMessage = e;\r\n      } catch (bytes memory errorBytes) {\r\n        errorMessage = string(errorBytes);\r\n      }\r\n\r\n      // The Witnet query failed. Set query ID to 0 so it can be retried using `checkTwitterID()` again\r\n      users[msg.sender].witnetQueryId = 0;\r\n      emit ResultError(errorMessage);\r\n    }\r\n  }\r\n\r\n  ///@notice Compares a string to an address\r\n  ///@param _addressStr An address in string form\r\n  ///@param _address The address to be compared\r\n  ///@return The match between the string and the address\r\n  function compareAddress(string memory _addressStr, address _address)\r\n    internal\r\n    pure\r\n    returns (bool)\r\n  {\r\n    bool matching = (keccak256(abi.encodePacked(_addressStr)) ==\r\n      keccak256(abi.encodePacked(toAsciiString(_address))));\r\n    return matching;\r\n  }\r\n\r\n  ///@notice Converts an Ethereum address to string\r\n  ///@param _address The address to be converted\r\n  ///@return The address in string form\r\n  function toAsciiString(address _address)\r\n    internal\r\n    pure\r\n    returns (string memory)\r\n  {\r\n    bytes memory s = new bytes(40);\r\n    for (uint256 i = 0; i < 20; i++) {\r\n      bytes1 b = bytes1(\r\n        uint8(uint256(uint160(_address)) / (2**(8 * (19 - i))))\r\n      );\r\n      bytes1 hi = bytes1(uint8(b) / 16);\r\n      bytes1 lo = bytes1(uint8(b) - 16 * uint8(hi));\r\n      s[2 * i] = char(hi);\r\n      s[2 * i + 1] = char(lo);\r\n    }\r\n    return string(abi.encodePacked(\"0x\", s));\r\n  }\r\n\r\n  function char(bytes1 b) internal pure returns (bytes1 c) {\r\n    if (uint8(b) < 10) return bytes1(uint8(b) + 0x30);\r\n    else return bytes1(uint8(b) + 0x57);\r\n  }\r\n}\r\n",
  "sourcePath": "C:\\Users\\jozsa\\code\\twitter-oracle\\contracts\\TwitterAuth.sol",
  "compiler": {
    "name": "solc",
    "version": "0.8.7+commit.e28d00a7.Emscripten.clang"
  },
  "schemaVersion": "3.4.3",
  "updatedAt": "2021-09-16T11:20:02.128Z",
  "networkType": "ethereum",
  "devdoc": {
    "author": "Rick",
    "kind": "dev",
    "methods": {
      "checkTwitterID(string)": {
        "params": {
          "_TweetId": "The tweet id wich contains the address in the text."
        }
      },
      "twitterIdFromAddress(address)": {
        "params": {
          "_user": "The address of the user"
        },
        "returns": {
          "_0": "The twitter id of the user"
        }
      }
    },
    "title": "Linking a Twitter user to Ethereum address using the Twitter oracle",
    "version": 1
  },
  "userdoc": {
    "kind": "user",
    "methods": {
      "checkTwitterID(string)": {
        "notice": "Sends a data request to Witnet so as to get the Twitter user id linked to the sender address"
      },
      "deleteTwitterID()": {
        "notice": "Deletes the queryId and the twitter id so it can be queried again."
      },
      "extractTwitterId()": {
        "notice": "Extracts and saves the twitter id from the query"
      },
      "twitterIdFromAddress(address)": {
        "notice": "Reads the twitter id from the users mapping"
      }
    },
    "version": 1
  }
}