{
  "contractName": "TwitterPointCounter",
  "abi": [
    {
      "inputs": [
        {
          "internalType": "contract WitnetRequestBoard",
          "name": "_wrb",
          "type": "address"
        },
        {
          "internalType": "address",
          "name": "_twitterAuthAddress",
          "type": "address"
        },
        {
          "internalType": "address",
          "name": "_factoryAddress",
          "type": "address"
        },
        {
          "internalType": "string",
          "name": "_tweetId",
          "type": "string"
        },
        {
          "internalType": "uint256",
          "name": "_reward",
          "type": "uint256"
        }
      ],
      "stateMutability": "nonpayable",
      "type": "constructor"
    },
    {
      "anonymous": false,
      "inputs": [
        {
          "indexed": true,
          "internalType": "address",
          "name": "previousOwner",
          "type": "address"
        },
        {
          "indexed": true,
          "internalType": "address",
          "name": "newOwner",
          "type": "address"
        }
      ],
      "name": "OwnershipTransferred",
      "type": "event"
    },
    {
      "anonymous": false,
      "inputs": [
        {
          "indexed": false,
          "internalType": "string",
          "name": "msg",
          "type": "string"
        }
      ],
      "name": "ResultError",
      "type": "event"
    },
    {
      "inputs": [],
      "name": "newRequest",
      "outputs": [
        {
          "internalType": "uint256",
          "name": "",
          "type": "uint256"
        }
      ],
      "stateMutability": "view",
      "type": "function"
    },
    {
      "inputs": [],
      "name": "owner",
      "outputs": [
        {
          "internalType": "address",
          "name": "",
          "type": "address"
        }
      ],
      "stateMutability": "view",
      "type": "function"
    },
    {
      "inputs": [
        {
          "internalType": "address",
          "name": "",
          "type": "address"
        }
      ],
      "name": "received",
      "outputs": [
        {
          "internalType": "uint64",
          "name": "",
          "type": "uint64"
        }
      ],
      "stateMutability": "view",
      "type": "function"
    },
    {
      "inputs": [],
      "name": "renounceOwnership",
      "outputs": [],
      "stateMutability": "nonpayable",
      "type": "function"
    },
    {
      "inputs": [],
      "name": "reward",
      "outputs": [
        {
          "internalType": "uint256",
          "name": "",
          "type": "uint256"
        }
      ],
      "stateMutability": "view",
      "type": "function"
    },
    {
      "inputs": [
        {
          "internalType": "address",
          "name": "newOwner",
          "type": "address"
        }
      ],
      "name": "transferOwnership",
      "outputs": [],
      "stateMutability": "nonpayable",
      "type": "function"
    },
    {
      "inputs": [],
      "name": "tweetId",
      "outputs": [
        {
          "internalType": "string",
          "name": "",
          "type": "string"
        }
      ],
      "stateMutability": "view",
      "type": "function"
    },
    {
      "inputs": [],
      "name": "twitterAuth",
      "outputs": [
        {
          "internalType": "contract ITwitterAuth",
          "name": "",
          "type": "address"
        }
      ],
      "stateMutability": "view",
      "type": "function"
    },
    {
      "inputs": [],
      "name": "twitterPointCounterFactory",
      "outputs": [
        {
          "internalType": "contract ITwitterPointCounterFactory",
          "name": "",
          "type": "address"
        }
      ],
      "stateMutability": "view",
      "type": "function"
    },
    {
      "inputs": [
        {
          "internalType": "address",
          "name": "",
          "type": "address"
        }
      ],
      "name": "users",
      "outputs": [
        {
          "internalType": "bool",
          "name": "liked",
          "type": "bool"
        },
        {
          "internalType": "bool",
          "name": "received",
          "type": "bool"
        },
        {
          "internalType": "bool",
          "name": "subscribed",
          "type": "bool"
        }
      ],
      "stateMutability": "view",
      "type": "function"
    },
    {
      "inputs": [],
      "name": "witnet",
      "outputs": [
        {
          "internalType": "contract WitnetRequestBoard",
          "name": "",
          "type": "address"
        }
      ],
      "stateMutability": "view",
      "type": "function"
    },
    {
      "stateMutability": "payable",
      "type": "receive"
    },
    {
      "inputs": [
        {
          "internalType": "uint256",
          "name": "_newReward",
          "type": "uint256"
        }
      ],
      "name": "setReward",
      "outputs": [],
      "stateMutability": "nonpayable",
      "type": "function"
    },
    {
      "inputs": [],
      "name": "requestPoints",
      "outputs": [],
      "stateMutability": "payable",
      "type": "function"
    },
    {
      "inputs": [],
      "name": "getPoints",
      "outputs": [],
      "stateMutability": "nonpayable",
      "type": "function"
    },
    {
      "inputs": [],
      "name": "withdrawReward",
      "outputs": [],
      "stateMutability": "nonpayable",
      "type": "function"
    },
    {
      "inputs": [],
      "name": "getLikers",
      "outputs": [
        {
          "internalType": "string[]",
          "name": "",
          "type": "string[]"
        }
      ],
      "stateMutability": "view",
      "type": "function"
    },
    {
      "inputs": [],
      "name": "removeFunds",
      "outputs": [],
      "stateMutability": "nonpayable",
      "type": "function"
    }
  ],
  "bytecode": "0x60e06040523480156200001157600080fd5b50604051620027ae380380620027ae8339810160408190526200003491620003d0565b846001600160a01b038116620000905760405162461bcd60e51b815260206004820152601960248201527f5573696e675769746e65743a207a65726f206164647265737300000000000000604482015260640160405180910390fd5b60601b6001600160601b031916608052620000b2620000ac3390565b62000112565b620000bd3062000162565b8051620000d3916004916020909101906200032a565b508151620000e99060059060208501906200032a565b506001600160601b0319606094851b811660a0529290931b90911660c052506006555062000819565b600080546001600160a01b038381166001600160a01b0319831681178455604051919092169283917f8be0079c531659141344cd1fd0a4f28419497f9722a3daafe3b4186f6b6457e09190a35050565b60408051602880825260608281019093526000919060208201818036833701905050905060005b6014811015620002c4576000620001a2826013620006da565b620001af90600862000694565b620001bc906002620005c9565b620001d1906001600160a01b03871662000544565b60f81b9050600060108260f81c620001ea91906200055b565b60f81b905060008160f81c6010620002039190620006b6565b8360f81c620002139190620006f4565b60f81b90506200022382620002ef565b856200023186600262000694565b81518110620002445762000244620007d4565b60200101906001600160f81b031916908160001a9053506200026681620002ef565b856200027486600262000694565b6200028190600162000501565b81518110620002945762000294620007d4565b60200101906001600160f81b031916908160001a9053505050508080620002bb906200078a565b91505062000189565b5080604051602001620002d89190620004d5565b604051602081830303815290604052915050919050565b6000600a60f883901c101562000319576200031060f883901c60306200051c565b60f81b92915050565b6200031060f883901c60576200051c565b82805462000338906200074d565b90600052602060002090601f0160209004810192826200035c5760008555620003a7565b82601f106200037757805160ff1916838001178555620003a7565b82800160010185558215620003a7579182015b82811115620003a75782518255916020019190600101906200038a565b50620003b5929150620003b9565b5090565b5b80821115620003b55760008155600101620003ba565b600080600080600060a08688031215620003e957600080fd5b8551620003f68162000800565b6020870151909550620004098162000800565b60408701519094506200041c8162000800565b60608701519093506001600160401b03808211156200043a57600080fd5b818801915088601f8301126200044f57600080fd5b815181811115620004645762000464620007ea565b604051601f8201601f19908116603f011681019083821181831017156200048f576200048f620007ea565b816040528281528b6020848701011115620004a957600080fd5b620004bc8360208301602088016200071a565b8096505050505050608086015190509295509295909350565b61060f60f31b815260008251620004f48160028501602087016200071a565b9190910160020192915050565b60008219821115620005175762000517620007a8565b500190565b600060ff821660ff84168060ff038211156200053c576200053c620007a8565b019392505050565b600082620005565762000556620007be565b500490565b600060ff831680620005715762000571620007be565b8060ff84160491505092915050565b600181815b80851115620005c1578160001904821115620005a557620005a5620007a8565b80851615620005b357918102915b93841c939080029062000585565b509250929050565b6000620005d78383620005de565b9392505050565b600082620005ef575060016200068e565b81620005fe575060006200068e565b8160018114620006175760028114620006225762000642565b60019150506200068e565b60ff841115620006365762000636620007a8565b50506001821b6200068e565b5060208310610133831016604e8410600b841016171562000667575081810a6200068e565b62000673838362000580565b80600019048211156200068a576200068a620007a8565b0290505b92915050565b6000816000190483118215151615620006b157620006b1620007a8565b500290565b600060ff821660ff84168160ff04811182151516156200068a576200068a620007a8565b600082821015620006ef57620006ef620007a8565b500390565b600060ff821660ff841680821015620007115762000711620007a8565b90039392505050565b60005b83811015620007375781810151838201526020016200071d565b8381111562000747576000848401525b50505050565b600181811c908216806200076257607f821691505b602082108114156200078457634e487b7160e01b600052602260045260246000fd5b50919050565b6000600019821415620007a157620007a1620007a8565b5060010190565b634e487b7160e01b600052601160045260246000fd5b634e487b7160e01b600052601260045260246000fd5b634e487b7160e01b600052603260045260246000fd5b634e487b7160e01b600052604160045260246000fd5b6001600160a01b03811681146200081657600080fd5b50565b60805160601c60a05160601c60c05160601c611f246200088a600039600081816102f70152610d020152600081816101f10152610a9101526000818161018a015281816108f40152818161099f01528181610bb001528181610dfe01528181610ea20152610fb00152611f246000f3fe608060405260043610620001175760003560e01c806398f62fe111620000a1578063d7b55d14116200006c578063d7b55d141462000331578063df0cb9341462000358578063f2fde38b14620003ad578063f4b7095b14620003d2578063feac51f514620003ea57600080fd5b806398f62fe11462000264578063a87430ba146200027c578063b043fa3c14620002e3578063c885bc58146200031957600080fd5b80637bdd7dc311620000e25780637bdd7dc314620001dd5780637ff5eed114620002135780638da5cb5b146200023a57806393c9e7b5146200025a57600080fd5b8063228cb7331462000124578063293be456146200014f57806346d1d21a1462000176578063715018a614620001c557600080fd5b366200011f57005b600080fd5b3480156200013157600080fd5b506200013c60065481565b6040519081526020015b60405180910390f35b3480156200015c57600080fd5b50620001746200016e366004620014e0565b62000402565b005b3480156200018357600080fd5b50620001ac7f000000000000000000000000000000000000000000000000000000000000000081565b6040516001600160a01b03909116815260200162000146565b348015620001d257600080fd5b50620001746200043d565b348015620001ea57600080fd5b50620001ac7f000000000000000000000000000000000000000000000000000000000000000081565b3480156200022057600080fd5b506200022b62000478565b604051620001469190620016c5565b3480156200024757600080fd5b506000546001600160a01b0316620001ac565b620001746200050e565b3480156200027157600080fd5b506200013c60015481565b3480156200028957600080fd5b50620002c36200029b366004620011b0565b60026020526000908152604090205460ff808216916101008104821691620100009091041683565b604080519315158452911515602084015215159082015260600162000146565b348015620002f057600080fd5b50620001ac7f000000000000000000000000000000000000000000000000000000000000000081565b3480156200032657600080fd5b50620001746200057e565b3480156200033e57600080fd5b50620003496200065f565b6040516200014691906200165f565b3480156200036557600080fd5b506200039362000377366004620011b0565b60036020526000908152604090205467ffffffffffffffff1681565b60405167ffffffffffffffff909116815260200162000146565b348015620003ba57600080fd5b5062000174620003cc366004620011b0565b62000742565b348015620003df57600080fd5b5062000174620007e1565b348015620003f757600080fd5b506200017462000cbe565b6000546001600160a01b03163314620004385760405162461bcd60e51b81526004016200042f9062001767565b60405180910390fd5b600655565b6000546001600160a01b031633146200046a5760405162461bcd60e51b81526004016200042f9062001767565b62000476600062000d8c565b565b60058054620004879062001913565b80601f0160208091040260200160405190810160405280929190818152602001828054620004b59062001913565b8015620005065780601f10620004da5761010080835404028352916020019162000506565b820191906000526020600020905b815481529060010190602001808311620004e857829003601f168201915b505050505081565b6000600460405160200162000524919062001542565b60405160208183030381529060405260405162000541906200103a565b6200054d9190620016c5565b604051809103906000f0801580156200056a573d6000803e3d6000fd5b509050620005788162000ddc565b60015550565b3360009081526002602052604090205460ff168015620005b3575033600090815260026020526040902054610100900460ff16155b620006155760405162461bcd60e51b815260206004820152602b60248201527f54776974746572506f696e74436f756e7465723a2043616e277420776974686460448201526a726177207265776172647360a81b60648201526084016200042f565b33600081815260026020526040808220805461ff001916610100179055600654905181156108fc0292818181858888f193505050501580156200065c573d6000803e3d6000fd5b50565b60606007805480602002602001604051908101604052809291908181526020016000905b8282101562000739578382906000526020600020018054620006a59062001913565b80601f0160208091040260200160405190810160405280929190818152602001828054620006d39062001913565b8015620007245780601f10620006f85761010080835404028352916020019162000724565b820191906000526020600020905b8154815290600101906020018083116200070657829003601f168201915b50505050508152602001906001019062000683565b50505050905090565b6000546001600160a01b031633146200076f5760405162461bcd60e51b81526004016200042f9062001767565b6001600160a01b038116620007d65760405162461bcd60e51b815260206004820152602660248201527f4f776e61626c653a206e6577206f776e657220697320746865207a65726f206160448201526564647265737360d01b60648201526084016200042f565b6200065c8162000d8c565b6000600154116200084a5760405162461bcd60e51b815260206004820152602c60248201527f54776974746572506f696e74436f756e7465723a205468657265206973206e6f60448201526b081b995dc81c995c5d595cdd60a21b60648201526084016200042f565b6200085760015462000e88565b620008cb5760405162461bcd60e51b815260206004820152603960248201527f54776974746572506f696e74436f756e7465723a204c696b657273206172652060448201527f63757272656e746c79206265696e67207265717565737465640000000000000060648201526084016200042f565b6000620008da60015462000f43565b604051635430260d60e11b81529091506001600160a01b037f0000000000000000000000000000000000000000000000000000000000000000169063a8604c1a906200092b9084906004016200179c565b60206040518083038186803b1580156200094457600080fd5b505afa15801562000959573d6000803e3d6000fd5b505050506040513d601f19601f820116820180604052508101906200097f9190620012c6565b1562000b965760405163643ecb4f60e11b81526000906001600160a01b037f0000000000000000000000000000000000000000000000000000000000000000169063c87d969e90620009d69085906004016200179c565b60006040518083038186803b158015620009ef57600080fd5b505afa15801562000a04573d6000803e3d6000fd5b505050506040513d6000823e601f3d908101601f1916820160405262000a2e9190810190620011f0565b905060005b815181101562000b8c57600782828151811062000a545762000a5462001990565b6020908102919091018101518254600181018455600093845292829020815162000a88949190910192919091019062001048565b506001600260007f00000000000000000000000000000000000000000000000000000000000000006001600160a01b031663fb7016a686868151811062000ad35762000ad362001990565b60200260200101516040518263ffffffff1660e01b815260040162000af99190620016c5565b602060405180830381600087803b15801562000b1457600080fd5b505af115801562000b29573d6000803e3d6000fd5b505050506040513d601f19601f8201168201806040525081019062000b4f9190620011d0565b6001600160a01b031681526020810191909152604001600020805460ff19169115159190911790558062000b838162001950565b91505062000a33565b5050600060015550565b604051636ba401df60e11b81526060906001600160a01b037f0000000000000000000000000000000000000000000000000000000000000000169063d74803be9062000be79085906004016200179c565b60006040518083038186803b15801562000c0057600080fd5b505afa92505050801562000c3857506040513d6000823e601f3d908101601f1916820160405262000c359190810190620012e4565b60015b62000c77573d80801562000c69576040519150601f19603f3d011682016040523d82523d6000602084013e62000c6e565b606091505b50905062000c7b565b9150505b60006001556040517fbfea49e8f99b20639d8417dbf46bab7c20b217fbe894ea27a249c990c1a359d69062000cb2908390620016c5565b60405180910390a15050565b6000546001600160a01b0316331462000ceb5760405162461bcd60e51b81526004016200042f9062001767565b60405163b9de911160e01b81526001600160a01b037f0000000000000000000000000000000000000000000000000000000000000000169063b9de91119062000d3a90600590600401620016da565b600060405180830381600087803b15801562000d5557600080fd5b505af115801562000d6a573d6000803e3d6000fd5b5050505062000d816000546001600160a01b031690565b6001600160a01b0316ff5b600080546001600160a01b038381166001600160a01b0319831681178455604051919092169283917f8be0079c531659141344cd1fd0a4f28419497f9722a3daafe3b4186f6b6457e09190a35050565b60405163b281a7bd60e01b81526001600160a01b0382811660048301526000917f00000000000000000000000000000000000000000000000000000000000000009091169063b281a7bd9034906024016020604051808303818588803b15801562000e4657600080fd5b505af115801562000e5b573d6000803e3d6000fd5b50505050506040513d601f19601f8201168201806040525081019062000e829190620014fa565b92915050565b60006002604051631bc1eaf360e21b8152600481018490527f00000000000000000000000000000000000000000000000000000000000000006001600160a01b031690636f07abcc9060240160206040518083038186803b15801562000eed57600080fd5b505afa15801562000f02573d6000803e3d6000fd5b505050506040513d601f19601f8201168201806040525081019062000f2891906200133f565b600381111562000f3c5762000f3c6200197a565b1492915050565b62000f9a6040805180820182526000808252825161010081018452606060c0820181815260e083018490528252602082810184905294820183905281018290526080810182905260a0810191909152909182015290565b6040516335369a6b60e21b8152600481018390527f00000000000000000000000000000000000000000000000000000000000000006001600160a01b03169063d4da69ac9060240160006040518083038186803b15801562000ffb57600080fd5b505afa15801562001010573d6000803e3d6000fd5b505050506040513d6000823e601f3d908101601f1916820160405262000e82919081019062001362565b61051c80620019d383390190565b828054620010569062001913565b90600052602060002090601f0160209004810192826200107a5760008555620010c5565b82601f106200109557805160ff1916838001178555620010c5565b82800160010185558215620010c5579182015b82811115620010c5578251825591602001919060010190620010a8565b50620010d3929150620010d7565b5090565b5b80821115620010d35760008155600101620010d8565b600067ffffffffffffffff8311156200110b576200110b620019a6565b62001120601f8401601f1916602001620018ac565b90508281528383830111156200113557600080fd5b62001145836020830184620018e0565b9392505050565b805180151581146200115d57600080fd5b919050565b600082601f8301126200117457600080fd5b6200114583835160208501620010ee565b805167ffffffffffffffff811681146200115d57600080fd5b805160ff811681146200115d57600080fd5b600060208284031215620011c357600080fd5b81356200114581620019bc565b600060208284031215620011e357600080fd5b81516200114581620019bc565b600060208083850312156200120457600080fd5b825167ffffffffffffffff808211156200121d57600080fd5b818501915085601f8301126200123257600080fd5b815181811115620012475762001247620019a6565b8060051b62001258858201620018ac565b8281528581019085870183870188018b10156200127457600080fd5b60009350835b85811015620012b65781518781111562001292578586fd5b620012a28d8b838c010162001162565b85525092880192908801906001016200127a565b50909a9950505050505050505050565b600060208284031215620012d957600080fd5b62001145826200114c565b60008060408385031215620012f857600080fd5b825161010081106200130957600080fd5b602084015190925067ffffffffffffffff8111156200132757600080fd5b620013358582860162001162565b9150509250929050565b6000602082840312156200135257600080fd5b8151600481106200114557600080fd5b600060208083850312156200137657600080fd5b825167ffffffffffffffff808211156200138f57600080fd5b9084019060408287031215620013a457600080fd5b620013ae6200185a565b620013b9836200114c565b81528383015182811115620013cd57600080fd5b929092019160c08388031215620013e357600080fd5b620013ed62001886565b835183811115620013fd57600080fd5b84016040818a0312156200141057600080fd5b6200141a6200185a565b8151858111156200142a57600080fd5b82019450601f85018a136200143e57600080fd5b6200144e8a8651898801620010ee565b815286820151945063ffffffff851685146200146957600080fd5b8087018590528252506200147f8486016200119e565b8582015262001491604085016200119e565b6040820152620014a4606085016200119e565b6060820152620014b76080850162001185565b6080820152620014ca60a0850162001185565b60a0820152938101939093525090949350505050565b600060208284031215620014f357600080fd5b5035919050565b6000602082840312156200150d57600080fd5b5051919050565b600081518084526200152e816020860160208601620018e0565b601f01601f19169290920160200192915050565b7f0a8e0108d3e6968a061270125f68747470733a2f2f6170692d6d6964646c65778152600060207f617265732e76657263656c2e6170702f6170692f747769747465722f737461748184015261732f60f01b6040840152604260008554620015aa8162001913565b60018281168015620015c55760018114620015db576200160d565b60ff19841689870152828901860194506200160d565b896000528660002060005b84811015620016035781548b8201890152908301908801620015e6565b505085838a010194505b50507f1a0d821877821861666c696b6572731a090a050808120180100222090a0508088352505075120180100210c0843d180a20e80728333080c8afa02560501b602082015260360195945050505050565b6000602080830181845280855180835260408601915060408160051b870101925083870160005b82811015620016b857603f19888603018452620016a585835162001514565b9450928501929085019060010162001686565b5092979650505050505050565b60208152600062001145602083018462001514565b6000602080835260008454620016f08162001913565b80848701526040600180841660008114620017145760018114620017295762001759565b60ff1985168984015260608901955062001759565b896000528660002060005b85811015620017515781548b820186015290830190880162001734565b8a0184019650505b509398975050505050505050565b6020808252818101527f4f776e61626c653a2063616c6c6572206973206e6f7420746865206f776e6572604082015260600190565b6020815281511515602082015260006020830151604080840152805160c0606085015280516040610120860152620017d961016086018262001514565b60209283015163ffffffff166101408701529183015160ff81166080870152919050604083015160ff811660a08701529150606083015160ff811660c08701529150608083015167ffffffffffffffff811660e0870152915060a083015192506200185161010086018467ffffffffffffffff169052565b95945050505050565b6040805190810167ffffffffffffffff81118282101715620018805762001880620019a6565b60405290565b60405160c0810167ffffffffffffffff81118282101715620018805762001880620019a6565b604051601f8201601f1916810167ffffffffffffffff81118282101715620018d857620018d8620019a6565b604052919050565b60005b83811015620018fd578181015183820152602001620018e3565b838111156200190d576000848401525b50505050565b600181811c908216806200192857607f821691505b602082108114156200194a57634e487b7160e01b600052602260045260246000fd5b50919050565b60006000198214156200197357634e487b7160e01b600052601160045260246000fd5b5060010190565b634e487b7160e01b600052602160045260246000fd5b634e487b7160e01b600052603260045260246000fd5b634e487b7160e01b600052604160045260246000fd5b6001600160a01b03811681146200065c57600080fdfe608060405234801561001057600080fd5b5060405161051c38038061051c83398101604081905261002f91610169565b80516100429060009060208401906100b7565b506100568161005f60201b6100fa1760201c565b600155506102b2565b60006002826040516100719190610215565b602060405180830381855afa15801561008e573d6000803e3d6000fd5b5050506040513d601f19601f820116820180604052508101906100b19190610150565b92915050565b8280546100c390610261565b90600052602060002090601f0160209004810192826100e5576000855561012b565b82601f106100fe57805160ff191683800117855561012b565b8280016001018555821561012b579182015b8281111561012b578251825591602001919060010190610110565b5061013792915061013b565b5090565b5b80821115610137576000815560010161013c565b60006020828403121561016257600080fd5b5051919050565b60006020828403121561017b57600080fd5b81516001600160401b038082111561019257600080fd5b818401915084601f8301126101a657600080fd5b8151818111156101b8576101b861029c565b604051601f8201601f19908116603f011681019083821181831017156101e0576101e061029c565b816040528281528760208487010111156101f957600080fd5b61020a836020830160208801610231565b979650505050505050565b60008251610227818460208701610231565b9190910192915050565b60005b8381101561024c578181015183820152602001610234565b8381111561025b576000848401525b50505050565b600181811c9082168061027557607f821691505b6020821081141561029657634e487b7160e01b600052602260045260246000fd5b50919050565b634e487b7160e01b600052604160045260246000fd5b61025b806102c16000396000f3fe608060405234801561001057600080fd5b50600436106100365760003560e01c806309bd5a601461003b578063f094000214610057575b600080fd5b61004460015481565b6040519081526020015b60405180910390f35b61005f61006c565b60405161004e9190610187565b60008054610079906101ea565b80601f01602080910402602001604051908101604052809291908181526020018280546100a5906101ea565b80156100f25780601f106100c7576101008083540402835291602001916100f2565b820191906000526020600020905b8154815290600101906020018083116100d557829003601f168201915b505050505081565b600060028260405161010c919061016b565b602060405180830381855afa158015610129573d6000803e3d6000fd5b5050506040513d601f19601f8201168201806040525081019061014c9190610152565b92915050565b60006020828403121561016457600080fd5b5051919050565b6000825161017d8184602087016101ba565b9190910192915050565b60208152600082518060208401526101a68160408501602087016101ba565b601f01601f19169190910160400192915050565b60005b838110156101d55781810151838201526020016101bd565b838111156101e4576000848401525b50505050565b600181811c908216806101fe57607f821691505b6020821081141561021f57634e487b7160e01b600052602260045260246000fd5b5091905056fea2646970667358221220ef494af7a904df372b1fc8471cbeb2be65a1db9560e8c7e0eb9bff297674d4ff64736f6c63430008070033a2646970667358221220edd99217d8d51973fe91186e1bef2fde73ab4d8949f49e52581061666c7c6b1464736f6c63430008070033",
  "immutableReferences": {
    "966": [
      {
        "length": 32,
        "start": 497
      },
      {
        "length": 32,
        "start": 2705
      }
    ],
    "969": [
      {
        "length": 32,
        "start": 759
      },
      {
        "length": 32,
        "start": 3330
      }
    ],
    "1596": [
      {
        "length": 32,
        "start": 394
      },
      {
        "length": 32,
        "start": 2292
      },
      {
        "length": 32,
        "start": 2463
      },
      {
        "length": 32,
        "start": 2992
      },
      {
        "length": 32,
        "start": 3582
      },
      {
        "length": 32,
        "start": 3746
      },
      {
        "length": 32,
        "start": 4016
      }
    ]
  },
  "source": "// SPDX-License-Identifier: MIT\r\n\r\npragma solidity 0.8.7;\r\n\r\nimport \"witnet-ethereum-bridge/contracts/UsingWitnet.sol\";\r\nimport \"witnet-ethereum-bridge/contracts/requests/WitnetRequest.sol\";\r\nimport \"@openzeppelin/contracts/access/Ownable.sol\";\r\nimport \"./interfaces/ITwitterAuth.sol\";\r\nimport \"./interfaces/ITwitterPointCounterFactory.sol\";\r\n\r\ncontract TwitterPointCounter is UsingWitnet, Ownable {\r\n  uint256 public newRequest;\r\n\r\n  struct User {\r\n    bool liked;\r\n    bool received;\r\n    bool subscribed;\r\n  }\r\n\r\n  mapping(address => User) public users;\r\n  mapping(address => uint64) public received;\r\n  string internal addressStr;\r\n  string public tweetId;\r\n  ITwitterAuth public immutable twitterAuth;\r\n  ITwitterPointCounterFactory public immutable twitterPointCounterFactory;\r\n  uint256 public reward;\r\n  string[] internal liked;\r\n\r\n  event ResultError(string msg);\r\n\r\n  /// Check whether there is a pending update.\r\n  modifier notPending() {\r\n    require(\r\n      _witnetCheckResultAvailability(newRequest),\r\n      \"TwitterPointCounter: Likers are currently being requested\"\r\n    );\r\n    _;\r\n  }\r\n\r\n  /// Check whether there is a request.\r\n  modifier requested() {\r\n    require(newRequest > 0, \"TwitterPointCounter: There is no new request\");\r\n    _;\r\n  }\r\n\r\n  ///@param _twitterAuthAddress Address of the TwitterAuth contract\r\n  ///@param _tweetId Id of the tweet to be monitored\r\n  ///@param _reward Amount of ETH for a like\r\n  constructor(\r\n    WitnetRequestBoard _wrb,\r\n    address _twitterAuthAddress,\r\n    address _factoryAddress,\r\n    string memory _tweetId,\r\n    uint256 _reward\r\n  ) UsingWitnet(_wrb) {\r\n    addressStr = toAsciiString(address(this));\r\n    tweetId = _tweetId;\r\n    twitterAuth = ITwitterAuth(_twitterAuthAddress);\r\n    twitterPointCounterFactory = ITwitterPointCounterFactory(_factoryAddress);\r\n    reward = _reward;\r\n  }\r\n\r\n  ///@notice Set a new reward for likes.\r\n  ///@param _newReward The new amount of ETH given as reward for likes.\r\n  function setReward(uint256 _newReward) external onlyOwner {\r\n    reward = _newReward;\r\n  }\r\n\r\n  ///@notice Creates a new Witnet request to query the likes of a tweet\r\n  ///@dev This process could take 10-15 minutes.\r\n  function requestPoints() external payable {\r\n    WitnetRequest request = new WitnetRequest(\r\n      bytes(\r\n        abi.encodePacked(\r\n          hex\"0a8e0108d3e6968a061270125f68747470733a2f2f6170692d6d6964646c6577617265732e76657263656c2e6170702f6170692f747769747465722f73746174732f\",\r\n          addressStr,\r\n          hex\"1a0d821877821861666c696b6572731a090a050808120180100222090a050808120180100210c0843d180a20e80728333080c8afa025\"\r\n        )\r\n      )\r\n    );\r\n\r\n    // Keerp track of the Witnet query ID\r\n    newRequest = _witnetPostRequest(request);\r\n  }\r\n\r\n  ///@notice Reads and stores the result of the Witnet request\r\n  ///@dev requestPoints() has to be called before this and the result has to be ready.\r\n  ///@dev The amount of users that can be processed at the same time is limited\r\n  function getPoints() public requested notPending {\r\n    //Extracting data\r\n    Witnet.Result memory result = _witnetReadResult(newRequest);\r\n\r\n    // prettier-ignore\r\n    if (witnet.isOk(result)) {\r\n      string[] memory values = witnet.asStringArray(result);\r\n      for (uint256 i = 0; i < values.length; i++) {\r\n        liked.push(values[i]);\r\n        users[twitterAuth.addressFromId(values[i])].liked = true;\r\n      }\r\n      newRequest = 0;\r\n    } else {\r\n      string memory errorMessage;\r\n      // Try to read the value as an error message, catch error bytes if read fails\r\n      try witnet.asErrorMessage(result) returns (\r\n        Witnet.ErrorCodes,\r\n        string memory e\r\n      ) {\r\n        errorMessage = e;\r\n      } catch (bytes memory errorBytes) {\r\n        errorMessage = string(errorBytes);\r\n      }\r\n\r\n      // The Witnet query failed. Set query ID to 0 so it can be retried using `checkTwitterID()` again\r\n      newRequest = 0;\r\n      emit ResultError(errorMessage);\r\n    }\r\n  }\r\n\r\n  ///@notice Send the reward to a user who liked the tweet.\r\n  function withdrawReward() public {\r\n    require(\r\n      users[msg.sender].liked && !users[msg.sender].received,\r\n      \"TwitterPointCounter: Can't withdraw rewards\"\r\n    );\r\n    users[msg.sender].received = true;\r\n    payable(msg.sender).transfer(reward);\r\n  }\r\n\r\n  ///@notice Returns the twitter id of every user who liked the tweet and are already queried.\r\n  ///@dev This array is for off-chain use only.\r\n  ///@dev The array size is not bound by anything so DO NOT iterate over it on-chain.\r\n  ///@return Array of twitter ids.\r\n  function getLikers() external view returns (string[] memory) {\r\n    return liked;\r\n  }\r\n\r\n  ///@notice Destroys the contract and sends the stored ETH to the owner.\r\n  function removeFunds() external onlyOwner {\r\n    twitterPointCounterFactory.deleteCounter(tweetId);\r\n    selfdestruct(payable(owner()));\r\n  }\r\n\r\n  ///@notice Converts an Ethereum address to string\r\n  ///@param _address The address to be converted\r\n  ///@return The address in string form\r\n  function toAsciiString(address _address)\r\n    internal\r\n    pure\r\n    returns (string memory)\r\n  {\r\n    bytes memory s = new bytes(40);\r\n    for (uint256 i = 0; i < 20; i++) {\r\n      bytes1 b = bytes1(\r\n        uint8(uint256(uint160(_address)) / (2**(8 * (19 - i))))\r\n      );\r\n      bytes1 hi = bytes1(uint8(b) / 16);\r\n      bytes1 lo = bytes1(uint8(b) - 16 * uint8(hi));\r\n      s[2 * i] = char(hi);\r\n      s[2 * i + 1] = char(lo);\r\n    }\r\n    return string(abi.encodePacked(\"0x\", s));\r\n  }\r\n\r\n  function char(bytes1 b) internal pure returns (bytes1 c) {\r\n    if (uint8(b) < 10) return bytes1(uint8(b) + 0x30);\r\n    else return bytes1(uint8(b) + 0x57);\r\n  }\r\n\r\n  receive() external payable {}\r\n}\r\n",
  "sourcePath": "C:\\Users\\jozsa\\code\\twitter-oracle\\contracts\\TwitterPointCounter.sol",
  "compiler": {
    "name": "solc",
    "version": "0.8.7+commit.e28d00a7.Emscripten.clang"
  },
  "schemaVersion": "3.4.3",
  "updatedAt": "2021-09-19T16:52:53.334Z",
  "devdoc": {
    "kind": "dev",
    "methods": {
      "constructor": {
        "params": {
          "_reward": "Amount of ETH for a like",
          "_tweetId": "Id of the tweet to be monitored",
          "_twitterAuthAddress": "Address of the TwitterAuth contract"
        }
      },
      "getLikers()": {
        "details": "This array is for off-chain use only.The array size is not bound by anything so DO NOT iterate over it on-chain.",
        "returns": {
          "_0": "Array of twitter ids."
        }
      },
      "getPoints()": {
        "details": "requestPoints() has to be called before this and the result has to be ready.The amount of users that can be processed at the same time is limited"
      },
      "owner()": {
        "details": "Returns the address of the current owner."
      },
      "renounceOwnership()": {
        "details": "Leaves the contract without owner. It will not be possible to call `onlyOwner` functions anymore. Can only be called by the current owner. NOTE: Renouncing ownership will leave the contract without an owner, thereby removing any functionality that is only available to the owner."
      },
      "requestPoints()": {
        "details": "This process could take 10-15 minutes."
      },
      "setReward(uint256)": {
        "params": {
          "_newReward": "The new amount of ETH given as reward for likes."
        }
      },
      "transferOwnership(address)": {
        "details": "Transfers ownership of the contract to a new account (`newOwner`). Can only be called by the current owner."
      }
    },
    "version": 1
  },
  "userdoc": {
    "kind": "user",
    "methods": {
      "getLikers()": {
        "notice": "Returns the twitter id of every user who liked the tweet and are already queried."
      },
      "getPoints()": {
        "notice": "Reads and stores the result of the Witnet request"
      },
      "removeFunds()": {
        "notice": "Destroys the contract and sends the stored ETH to the owner."
      },
      "requestPoints()": {
        "notice": "Creates a new Witnet request to query the likes of a tweet"
      },
      "setReward(uint256)": {
        "notice": "Set a new reward for likes."
      },
      "withdrawReward()": {
        "notice": "Send the reward to a user who liked the tweet."
      }
    },
    "version": 1
  }
}